{
  "contractName": "BlockEHR",
  "abi": [
    {
      "constant": false,
      "inputs": [
        {
          "internalType": "string",
          "name": "name",
          "type": "string"
        },
        {
          "internalType": "string",
          "name": "pubKey",
          "type": "string"
        },
        {
          "internalType": "string",
          "name": "userType",
          "type": "string"
        }
      ],
      "name": "registerUser",
      "outputs": [],
      "payable": false,
      "stateMutability": "nonpayable",
      "type": "function"
    },
    {
      "constant": true,
      "inputs": [],
      "name": "getAllUsers",
      "outputs": [
        {
          "internalType": "string[]",
          "name": "names",
          "type": "string[]"
        },
        {
          "internalType": "address[]",
          "name": "addr",
          "type": "address[]"
        },
        {
          "internalType": "string[]",
          "name": "types",
          "type": "string[]"
        }
      ],
      "payable": false,
      "stateMutability": "view",
      "type": "function"
    },
    {
      "constant": true,
      "inputs": [],
      "name": "getUserName",
      "outputs": [
        {
          "internalType": "string",
          "name": "name",
          "type": "string"
        }
      ],
      "payable": false,
      "stateMutability": "view",
      "type": "function"
    },
    {
      "constant": true,
      "inputs": [
        {
          "internalType": "address",
          "name": "id",
          "type": "address"
        }
      ],
      "name": "getPublicKey",
      "outputs": [
        {
          "internalType": "string",
          "name": "pubKey",
          "type": "string"
        }
      ],
      "payable": false,
      "stateMutability": "view",
      "type": "function"
    },
    {
      "constant": false,
      "inputs": [
        {
          "internalType": "address",
          "name": "to_id",
          "type": "address"
        },
        {
          "internalType": "string",
          "name": "name",
          "type": "string"
        },
        {
          "internalType": "string",
          "name": "hash",
          "type": "string"
        },
        {
          "internalType": "string",
          "name": "key",
          "type": "string"
        },
        {
          "internalType": "string",
          "name": "iv",
          "type": "string"
        }
      ],
      "name": "addFile",
      "outputs": [],
      "payable": false,
      "stateMutability": "nonpayable",
      "type": "function"
    },
    {
      "constant": true,
      "inputs": [
        {
          "internalType": "address",
          "name": "id",
          "type": "address"
        }
      ],
      "name": "getAllTransactions",
      "outputs": [
        {
          "components": [
            {
              "internalType": "address",
              "name": "from_id",
              "type": "address"
            },
            {
              "internalType": "address",
              "name": "to_id",
              "type": "address"
            },
            {
              "internalType": "string",
              "name": "name",
              "type": "string"
            },
            {
              "internalType": "string",
              "name": "hash",
              "type": "string"
            },
            {
              "internalType": "string",
              "name": "key",
              "type": "string"
            },
            {
              "internalType": "string",
              "name": "iv",
              "type": "string"
            },
            {
              "internalType": "bool",
              "name": "approved",
              "type": "bool"
            },
            {
              "internalType": "uint256",
              "name": "timestamp",
              "type": "uint256"
            }
          ],
          "internalType": "struct BlockEHR.file[]",
          "name": "files",
          "type": "tuple[]"
        }
      ],
      "payable": false,
      "stateMutability": "view",
      "type": "function"
    },
    {
      "constant": true,
      "inputs": [],
      "name": "getSentFiles",
      "outputs": [
        {
          "components": [
            {
              "internalType": "address",
              "name": "from_id",
              "type": "address"
            },
            {
              "internalType": "address",
              "name": "to_id",
              "type": "address"
            },
            {
              "internalType": "string",
              "name": "name",
              "type": "string"
            },
            {
              "internalType": "string",
              "name": "hash",
              "type": "string"
            },
            {
              "internalType": "string",
              "name": "key",
              "type": "string"
            },
            {
              "internalType": "string",
              "name": "iv",
              "type": "string"
            },
            {
              "internalType": "bool",
              "name": "approved",
              "type": "bool"
            },
            {
              "internalType": "uint256",
              "name": "timestamp",
              "type": "uint256"
            }
          ],
          "internalType": "struct BlockEHR.file[]",
          "name": "sentFiles",
          "type": "tuple[]"
        }
      ],
      "payable": false,
      "stateMutability": "view",
      "type": "function"
    },
    {
      "constant": true,
      "inputs": [],
      "name": "getReceivedFiles",
      "outputs": [
        {
          "components": [
            {
              "internalType": "address",
              "name": "from_id",
              "type": "address"
            },
            {
              "internalType": "address",
              "name": "to_id",
              "type": "address"
            },
            {
              "internalType": "string",
              "name": "name",
              "type": "string"
            },
            {
              "internalType": "string",
              "name": "hash",
              "type": "string"
            },
            {
              "internalType": "string",
              "name": "key",
              "type": "string"
            },
            {
              "internalType": "string",
              "name": "iv",
              "type": "string"
            },
            {
              "internalType": "bool",
              "name": "approved",
              "type": "bool"
            },
            {
              "internalType": "uint256",
              "name": "timestamp",
              "type": "uint256"
            }
          ],
          "internalType": "struct BlockEHR.file[]",
          "name": "rcvdFiles",
          "type": "tuple[]"
        }
      ],
      "payable": false,
      "stateMutability": "view",
      "type": "function"
    },
    {
      "constant": true,
      "inputs": [
        {
          "internalType": "string",
          "name": "hash",
          "type": "string"
        }
      ],
      "name": "getFile",
      "outputs": [
        {
          "internalType": "string",
          "name": "name",
          "type": "string"
        },
        {
          "internalType": "string",
          "name": "key",
          "type": "string"
        },
        {
          "internalType": "string",
          "name": "iv",
          "type": "string"
        }
      ],
      "payable": false,
      "stateMutability": "view",
      "type": "function"
    }
  ],
  "bytecode": "0x608060405260008055600060035534801561001957600080fd5b50612bc6806100296000396000f3fe608060405234801561001057600080fd5b50600436106100935760003560e01c8063857cdbb811610066578063857cdbb81461010e578063d637dcfa1461013e578063dab3b7aa1461015a578063e0876aa81461018a578063e2842d79146101bc57610093565b806312958f1c146100985780633908c7f5146100b65780634729025e146100d25780635b67a531146100f0575b600080fd5b6100a06101dc565b6040516100ad91906128fc565b60405180910390f35b6100d060048036036100cb919081019061233c565b6102be565b005b6100da6108ec565b6040516100e791906128da565b60405180910390f35b6100f8610ce2565b60405161010591906128da565b60405180910390f35b61012860048036036101239190810190612313565b6110d8565b60405161013591906128fc565b60405180910390f35b61015860048036036101539190810190612454565b6111bc565b005b610174600480360361016f9190810190612313565b61146c565b60405161018191906128da565b60405180910390f35b6101a4600480360361019f9190810190612413565b611864565b6040516101b39392919061291e565b60405180910390f35b6101c4611e1b565b6040516101d39392919061288e565b60405180910390f35b6060600560003373ffffffffffffffffffffffffffffffffffffffff1673ffffffffffffffffffffffffffffffffffffffff1681526020019081526020016000206001018054600181600116156101000203166002900480601f0160208091040260200160405190810160405280929190818152602001828054600181600116156101000203166002900480156102b45780601f10610289576101008083540402835291602001916102b4565b820191906000526020600020905b81548152906001019060200180831161029757829003601f168201915b5050505050905090565b6040518061010001604052803373ffffffffffffffffffffffffffffffffffffffff1681526020018673ffffffffffffffffffffffffffffffffffffffff168152602001858152602001848152602001838152602001828152602001600115158152602001428152506002846040516103379190612862565b908152602001604051809103902060008201518160000160006101000a81548173ffffffffffffffffffffffffffffffffffffffff021916908373ffffffffffffffffffffffffffffffffffffffff16021790555060208201518160010160006101000a81548173ffffffffffffffffffffffffffffffffffffffff021916908373ffffffffffffffffffffffffffffffffffffffff16021790555060408201518160020190805190602001906103ef92919061217e565b50606082015181600301908051906020019061040c92919061217e565b50608082015181600401908051906020019061042992919061217e565b5060a082015181600501908051906020019061044692919061217e565b5060c08201518160060160006101000a81548160ff02191690831515021790555060e08201518160070155905050600660003373ffffffffffffffffffffffffffffffffffffffff1673ffffffffffffffffffffffffffffffffffffffff1681526020019081526020016000206002846040516104c39190612862565b9081526020016040518091039020908060018154018082558091505090600182039060005260206000209060080201600090919290919091506000820160009054906101000a900473ffffffffffffffffffffffffffffffffffffffff168160000160006101000a81548173ffffffffffffffffffffffffffffffffffffffff021916908373ffffffffffffffffffffffffffffffffffffffff1602179055506001820160009054906101000a900473ffffffffffffffffffffffffffffffffffffffff168160010160006101000a81548173ffffffffffffffffffffffffffffffffffffffff021916908373ffffffffffffffffffffffffffffffffffffffff160217905550600282018160020190805460018160011615610100020316600290046105f19291906121fe565b50600382018160030190805460018160011615610100020316600290046106199291906121fe565b50600482018160040190805460018160011615610100020316600290046106419291906121fe565b50600582018160050190805460018160011615610100020316600290046106699291906121fe565b506006820160009054906101000a900460ff168160060160006101000a81548160ff02191690831515021790555060078201548160070155505050600760008673ffffffffffffffffffffffffffffffffffffffff1673ffffffffffffffffffffffffffffffffffffffff1681526020019081526020016000206002846040516106f39190612862565b9081526020016040518091039020908060018154018082558091505090600182039060005260206000209060080201600090919290919091506000820160009054906101000a900473ffffffffffffffffffffffffffffffffffffffff168160000160006101000a81548173ffffffffffffffffffffffffffffffffffffffff021916908373ffffffffffffffffffffffffffffffffffffffff1602179055506001820160009054906101000a900473ffffffffffffffffffffffffffffffffffffffff168160010160006101000a81548173ffffffffffffffffffffffffffffffffffffffff021916908373ffffffffffffffffffffffffffffffffffffffff160217905550600282018160020190805460018160011615610100020316600290046108219291906121fe565b50600382018160030190805460018160011615610100020316600290046108499291906121fe565b50600482018160040190805460018160011615610100020316600290046108719291906121fe565b50600582018160050190805460018160011615610100020316600290046108999291906121fe565b506006820160009054906101000a900460ff168160060160006101000a81548160ff0219169083151502179055506007820154816007015550505060008081548092919060010191905055505050505050565b6060600660003373ffffffffffffffffffffffffffffffffffffffff1673ffffffffffffffffffffffffffffffffffffffff168152602001908152602001600020805480602002602001604051908101604052809291908181526020016000905b82821015610cd95783829060005260206000209060080201604051806101000160405290816000820160009054906101000a900473ffffffffffffffffffffffffffffffffffffffff1673ffffffffffffffffffffffffffffffffffffffff1673ffffffffffffffffffffffffffffffffffffffff1681526020016001820160009054906101000a900473ffffffffffffffffffffffffffffffffffffffff1673ffffffffffffffffffffffffffffffffffffffff1673ffffffffffffffffffffffffffffffffffffffff168152602001600282018054600181600116156101000203166002900480601f016020809104026020016040519081016040528092919081815260200182805460018160011615610100020316600290048015610ab65780601f10610a8b57610100808354040283529160200191610ab6565b820191906000526020600020905b815481529060010190602001808311610a9957829003601f168201915b50505050508152602001600382018054600181600116156101000203166002900480601f016020809104026020016040519081016040528092919081815260200182805460018160011615610100020316600290048015610b585780601f10610b2d57610100808354040283529160200191610b58565b820191906000526020600020905b815481529060010190602001808311610b3b57829003601f168201915b50505050508152602001600482018054600181600116156101000203166002900480601f016020809104026020016040519081016040528092919081815260200182805460018160011615610100020316600290048015610bfa5780601f10610bcf57610100808354040283529160200191610bfa565b820191906000526020600020905b815481529060010190602001808311610bdd57829003601f168201915b50505050508152602001600582018054600181600116156101000203166002900480601f016020809104026020016040519081016040528092919081815260200182805460018160011615610100020316600290048015610c9c5780601f10610c7157610100808354040283529160200191610c9c565b820191906000526020600020905b815481529060010190602001808311610c7f57829003601f168201915b505050505081526020016006820160009054906101000a900460ff161515151581526020016007820154815250508152602001906001019061094d565b50505050905090565b6060600760003373ffffffffffffffffffffffffffffffffffffffff1673ffffffffffffffffffffffffffffffffffffffff168152602001908152602001600020805480602002602001604051908101604052809291908181526020016000905b828210156110cf5783829060005260206000209060080201604051806101000160405290816000820160009054906101000a900473ffffffffffffffffffffffffffffffffffffffff1673ffffffffffffffffffffffffffffffffffffffff1673ffffffffffffffffffffffffffffffffffffffff1681526020016001820160009054906101000a900473ffffffffffffffffffffffffffffffffffffffff1673ffffffffffffffffffffffffffffffffffffffff1673ffffffffffffffffffffffffffffffffffffffff168152602001600282018054600181600116156101000203166002900480601f016020809104026020016040519081016040528092919081815260200182805460018160011615610100020316600290048015610eac5780601f10610e8157610100808354040283529160200191610eac565b820191906000526020600020905b815481529060010190602001808311610e8f57829003601f168201915b50505050508152602001600382018054600181600116156101000203166002900480601f016020809104026020016040519081016040528092919081815260200182805460018160011615610100020316600290048015610f4e5780601f10610f2357610100808354040283529160200191610f4e565b820191906000526020600020905b815481529060010190602001808311610f3157829003601f168201915b50505050508152602001600482018054600181600116156101000203166002900480601f016020809104026020016040519081016040528092919081815260200182805460018160011615610100020316600290048015610ff05780601f10610fc557610100808354040283529160200191610ff0565b820191906000526020600020905b815481529060010190602001808311610fd357829003601f168201915b50505050508152602001600582018054600181600116156101000203166002900480601f0160208091040260200160405190810160405280929190818152602001828054600181600116156101000203166002900480156110925780601f1061106757610100808354040283529160200191611092565b820191906000526020600020905b81548152906001019060200180831161107557829003601f168201915b505050505081526020016006820160009054906101000a900460ff1615151515815260200160078201548152505081526020019060010190610d43565b50505050905090565b6060600560008373ffffffffffffffffffffffffffffffffffffffff1673ffffffffffffffffffffffffffffffffffffffff1681526020019081526020016000206002018054600181600116156101000203166002900480601f0160208091040260200160405190810160405280929190818152602001828054600181600116156101000203166002900480156111b05780601f10611185576101008083540402835291602001916111b0565b820191906000526020600020905b81548152906001019060200180831161119357829003601f168201915b50505050509050919050565b6000600560003373ffffffffffffffffffffffffffffffffffffffff1673ffffffffffffffffffffffffffffffffffffffff168152602001908152602001600020905060405160200161120e90612879565b60405160208183030381529060405280519060200120846040516020016112359190612862565b60405160208183030381529060405280519060200120141561125657600080fd5b8060000160009054906101000a900473ffffffffffffffffffffffffffffffffffffffff1673ffffffffffffffffffffffffffffffffffffffff163373ffffffffffffffffffffffffffffffffffffffff1614156112e9576040517f08c379a00000000000000000000000000000000000000000000000000000000081526004016112e09061296a565b60405180910390fd5b60405180608001604052803373ffffffffffffffffffffffffffffffffffffffff16815260200185815260200184815260200183815250600560003373ffffffffffffffffffffffffffffffffffffffff1673ffffffffffffffffffffffffffffffffffffffff16815260200190815260200160002060008201518160000160006101000a81548173ffffffffffffffffffffffffffffffffffffffff021916908373ffffffffffffffffffffffffffffffffffffffff16021790555060208201518160010190805190602001906113c292919061217e565b5060408201518160020190805190602001906113df92919061217e565b5060608201518160030190805190602001906113fc92919061217e565b509050503360046000600354815260200190815260200160002060006101000a81548173ffffffffffffffffffffffffffffffffffffffff021916908373ffffffffffffffffffffffffffffffffffffffff16021790555060036000815480929190600101919050555050505050565b6060600660008373ffffffffffffffffffffffffffffffffffffffff1673ffffffffffffffffffffffffffffffffffffffff168152602001908152602001600020805480602002602001604051908101604052809291908181526020016000905b828210156118595783829060005260206000209060080201604051806101000160405290816000820160009054906101000a900473ffffffffffffffffffffffffffffffffffffffff1673ffffffffffffffffffffffffffffffffffffffff1673ffffffffffffffffffffffffffffffffffffffff1681526020016001820160009054906101000a900473ffffffffffffffffffffffffffffffffffffffff1673ffffffffffffffffffffffffffffffffffffffff1673ffffffffffffffffffffffffffffffffffffffff168152602001600282018054600181600116156101000203166002900480601f0160208091040260200160405190810160405280929190818152602001828054600181600116156101000203166002900480156116365780601f1061160b57610100808354040283529160200191611636565b820191906000526020600020905b81548152906001019060200180831161161957829003601f168201915b50505050508152602001600382018054600181600116156101000203166002900480601f0160208091040260200160405190810160405280929190818152602001828054600181600116156101000203166002900480156116d85780601f106116ad576101008083540402835291602001916116d8565b820191906000526020600020905b8154815290600101906020018083116116bb57829003601f168201915b50505050508152602001600482018054600181600116156101000203166002900480601f01602080910402602001604051908101604052809291908181526020018280546001816001161561010002031660029004801561177a5780601f1061174f5761010080835404028352916020019161177a565b820191906000526020600020905b81548152906001019060200180831161175d57829003601f168201915b50505050508152602001600582018054600181600116156101000203166002900480601f01602080910402602001604051908101604052809291908181526020018280546001816001161561010002031660029004801561181c5780601f106117f15761010080835404028352916020019161181c565b820191906000526020600020905b8154815290600101906020018083116117ff57829003601f168201915b505050505081526020016006820160009054906101000a900460ff16151515158152602001600782015481525050815260200190600101906114cd565b505050509050919050565b60608060606001151560028560405161187d9190612862565b908152602001604051809103902060060160009054906101000a900460ff1615151415611e13576002846040516118b49190612862565b908152602001604051809103902060000160009054906101000a900473ffffffffffffffffffffffffffffffffffffffff1673ffffffffffffffffffffffffffffffffffffffff163373ffffffffffffffffffffffffffffffffffffffff161415611b5b576002846040516119299190612862565b908152602001604051809103902060020160028560405161194a9190612862565b908152602001604051809103902060040160028660405161196b9190612862565b9081526020016040518091039020600501828054600181600116156101000203166002900480601f016020809104026020016040519081016040528092919081815260200182805460018160011615610100020316600290048015611a115780601f106119e657610100808354040283529160200191611a11565b820191906000526020600020905b8154815290600101906020018083116119f457829003601f168201915b50505050509250818054600181600116156101000203166002900480601f016020809104026020016040519081016040528092919081815260200182805460018160011615610100020316600290048015611aad5780601f10611a8257610100808354040283529160200191611aad565b820191906000526020600020905b815481529060010190602001808311611a9057829003601f168201915b50505050509150808054600181600116156101000203166002900480601f016020809104026020016040519081016040528092919081815260200182805460018160011615610100020316600290048015611b495780601f10611b1e57610100808354040283529160200191611b49565b820191906000526020600020905b815481529060010190602001808311611b2c57829003601f168201915b50505050509050925092509250611e14565b600284604051611b6b9190612862565b908152602001604051809103902060010160009054906101000a900473ffffffffffffffffffffffffffffffffffffffff1673ffffffffffffffffffffffffffffffffffffffff163373ffffffffffffffffffffffffffffffffffffffff161415611e1257600284604051611be09190612862565b9081526020016040518091039020600201600285604051611c019190612862565b9081526020016040518091039020600401600286604051611c229190612862565b9081526020016040518091039020600501828054600181600116156101000203166002900480601f016020809104026020016040519081016040528092919081815260200182805460018160011615610100020316600290048015611cc85780601f10611c9d57610100808354040283529160200191611cc8565b820191906000526020600020905b815481529060010190602001808311611cab57829003601f168201915b50505050509250818054600181600116156101000203166002900480601f016020809104026020016040519081016040528092919081815260200182805460018160011615610100020316600290048015611d645780601f10611d3957610100808354040283529160200191611d64565b820191906000526020600020905b815481529060010190602001808311611d4757829003601f168201915b50505050509150808054600181600116156101000203166002900480601f016020809104026020016040519081016040528092919081815260200182805460018160011615610100020316600290048015611e005780601f10611dd557610100808354040283529160200191611e00565b820191906000526020600020905b815481529060010190602001808311611de357829003601f168201915b50505050509050925092509250611e14565b5b5b9193909250565b606080606080600354604051908082528060200260200182016040528015611e525781602001602082028038833980820191505090505b5090506060600354604051908082528060200260200182016040528015611e8d57816020015b6060815260200190600190039081611e785790505b5090506060600354604051908082528060200260200182016040528015611ec857816020015b6060815260200190600190039081611eb35790505b50905060008090505b60035481101561216c576004600082815260200190815260200160002060009054906101000a900473ffffffffffffffffffffffffffffffffffffffff16848281518110611f1b57fe5b602002602001019073ffffffffffffffffffffffffffffffffffffffff16908173ffffffffffffffffffffffffffffffffffffffff168152505060056000858381518110611f6557fe5b602002602001015173ffffffffffffffffffffffffffffffffffffffff1673ffffffffffffffffffffffffffffffffffffffff1681526020019081526020016000206001018054600181600116156101000203166002900480601f01602080910402602001604051908101604052809291908181526020018280546001816001161561010002031660029004801561203e5780601f106120135761010080835404028352916020019161203e565b820191906000526020600020905b81548152906001019060200180831161202157829003601f168201915b505050505083828151811061204f57fe5b60200260200101819052506005600085838151811061206a57fe5b602002602001015173ffffffffffffffffffffffffffffffffffffffff1673ffffffffffffffffffffffffffffffffffffffff1681526020019081526020016000206003018054600181600116156101000203166002900480601f0160208091040260200160405190810160405280929190818152602001828054600181600116156101000203166002900480156121435780601f1061211857610100808354040283529160200191612143565b820191906000526020600020905b81548152906001019060200180831161212657829003601f168201915b505050505082828151811061215457fe5b60200260200101819052508080600101915050611ed1565b50818382955095509550505050909192565b828054600181600116156101000203166002900490600052602060002090601f016020900481019282601f106121bf57805160ff19168380011785556121ed565b828001600101855582156121ed579182015b828111156121ec5782518255916020019190600101906121d1565b5b5090506121fa9190612285565b5090565b828054600181600116156101000203166002900490600052602060002090601f016020900481019282601f106122375780548555612274565b8280016001018555821561227457600052602060002091601f016020900482015b82811115612273578254825591600101919060010190612258565b5b5090506122819190612285565b5090565b6122a791905b808211156122a357600081600090555060010161228b565b5090565b90565b6000813590506122b981612b6c565b92915050565b600082601f8301126122d057600080fd5b81356122e36122de826129b7565b61298a565b915080825260208301602083018583830111156122ff57600080fd5b61230a838284612b19565b50505092915050565b60006020828403121561232557600080fd5b6000612333848285016122aa565b91505092915050565b600080600080600060a0868803121561235457600080fd5b6000612362888289016122aa565b955050602086013567ffffffffffffffff81111561237f57600080fd5b61238b888289016122bf565b945050604086013567ffffffffffffffff8111156123a857600080fd5b6123b4888289016122bf565b935050606086013567ffffffffffffffff8111156123d157600080fd5b6123dd888289016122bf565b925050608086013567ffffffffffffffff8111156123fa57600080fd5b612406888289016122bf565b9150509295509295909350565b60006020828403121561242557600080fd5b600082013567ffffffffffffffff81111561243f57600080fd5b61244b848285016122bf565b91505092915050565b60008060006060848603121561246957600080fd5b600084013567ffffffffffffffff81111561248357600080fd5b61248f868287016122bf565b935050602084013567ffffffffffffffff8111156124ac57600080fd5b6124b8868287016122bf565b925050604084013567ffffffffffffffff8111156124d557600080fd5b6124e1868287016122bf565b9150509250925092565b60006124f7838361252b565b60208301905092915050565b600061250f83836126fb565b905092915050565b6000612523838361278e565b905092915050565b61253481612ad1565b82525050565b600061254582612a13565b61254f8185612a71565b935061255a836129e3565b8060005b8381101561258b57815161257288826124eb565b975061257d83612a4a565b92505060018101905061255e565b5085935050505092915050565b60006125a382612a1e565b6125ad8185612a82565b9350836020820285016125bf856129f3565b8060005b858110156125fb57848403895281516125dc8582612503565b94506125e783612a57565b925060208a019950506001810190506125c3565b50829750879550505050505092915050565b600061261882612a29565b6126228185612a93565b93508360208202850161263485612a03565b8060005b8581101561267057848403895281516126518582612517565b945061265c83612a64565b925060208a01995050600181019050612638565b50829750879550505050505092915050565b61268b81612ae3565b82525050565b600061269c82612a3f565b6126a68185612ab5565b93506126b6818560208601612b28565b6126bf81612b5b565b840191505092915050565b60006126d582612a3f565b6126df8185612ac6565b93506126ef818560208601612b28565b80840191505092915050565b600061270682612a34565b6127108185612aa4565b9350612720818560208601612b28565b61272981612b5b565b840191505092915050565b6000612741601283612ab5565b91507f616c7265616479207265676973746572656400000000000000000000000000006000830152602082019050919050565b6000612781600083612ac6565b9150600082019050919050565b6000610100830160008301516127a7600086018261252b565b5060208301516127ba602086018261252b565b50604083015184820360408601526127d282826126fb565b915050606083015184820360608601526127ec82826126fb565b9150506080830151848203608086015261280682826126fb565b91505060a083015184820360a086015261282082826126fb565b91505060c083015161283560c0860182612682565b5060e083015161284860e0860182612853565b508091505092915050565b61285c81612b0f565b82525050565b600061286e82846126ca565b915081905092915050565b600061288482612774565b9150819050919050565b600060608201905081810360008301526128a88186612598565b905081810360208301526128bc818561253a565b905081810360408301526128d08184612598565b9050949350505050565b600060208201905081810360008301526128f4818461260d565b905092915050565b600060208201905081810360008301526129168184612691565b905092915050565b600060608201905081810360008301526129388186612691565b9050818103602083015261294c8185612691565b905081810360408301526129608184612691565b9050949350505050565b6000602082019050818103600083015261298381612734565b9050919050565b6000604051905081810181811067ffffffffffffffff821117156129ad57600080fd5b8060405250919050565b600067ffffffffffffffff8211156129ce57600080fd5b601f19601f8301169050602081019050919050565b6000819050602082019050919050565b6000819050602082019050919050565b6000819050602082019050919050565b600081519050919050565b600081519050919050565b600081519050919050565b600081519050919050565b600081519050919050565b6000602082019050919050565b6000602082019050919050565b6000602082019050919050565b600082825260208201905092915050565b600082825260208201905092915050565b600082825260208201905092915050565b600082825260208201905092915050565b600082825260208201905092915050565b600081905092915050565b6000612adc82612aef565b9050919050565b60008115159050919050565b600073ffffffffffffffffffffffffffffffffffffffff82169050919050565b6000819050919050565b82818337600083830152505050565b60005b83811015612b46578082015181840152602081019050612b2b565b83811115612b55576000848401525b50505050565b6000601f19601f8301169050919050565b612b7581612ad1565b8114612b8057600080fd5b5056fea365627a7a72315820ba16a6365b2237f2829150c3e2e0978165234bbff730583801cf26ccdabc72576c6578706572696d656e74616cf564736f6c63430005100040",
  "source": "pragma solidity ^0.5.0;\r\npragma experimental ABIEncoderV2;\r\n\r\ncontract BlockEHR {\r\n    \r\n    struct user {\r\n        address id;\r\n        string name;\r\n        string pubKey;\r\n        string userType;\r\n    }\r\n    \r\n    struct file {\r\n        address from_id;\r\n        address to_id;\r\n        string name;\r\n        string hash;\r\n        string key;\r\n        string iv;\r\n        bool approved;\r\n        uint timestamp;\r\n    }\r\n    \r\n    uint256 internal totalFiles = 0;\r\n    mapping(uint256 => string) internal allFiles;\r\n    mapping(string => file) internal fileInfo;\r\n    \r\n    uint internal totalUsers = 0;\r\n    mapping(uint256 => address) internal allUsers;\r\n    mapping(address => user) internal users;\r\n    mapping(address => file[]) internal userSentFileList;\r\n    mapping(address => file[]) internal userRcvdFileList;\r\n    \r\n    function registerUser(string memory name, string memory pubKey, string memory userType) public {\r\n        user storage u = users[msg.sender];\r\n        require(keccak256(abi.encodePacked((name))) != keccak256(abi.encodePacked((\"\"))));\r\n        if(msg.sender == u.id) {\r\n            revert(\"already registered\");\r\n        } else {\r\n            users[msg.sender] = user(msg.sender, name, pubKey, userType);\r\n            allUsers[totalUsers] = msg.sender;\r\n            totalUsers++;\r\n        }\r\n    }\r\n    \r\n    function getAllUsers() public view returns(string[] memory names, address[] memory addr, string[] memory types) {\r\n        address[] memory addrList = new address[](totalUsers);\r\n        string[] memory namesList = new string[](totalUsers);\r\n        string[] memory typeList = new string[](totalUsers);\r\n        for (uint i = 0; i < totalUsers; i++) {\r\n            addrList[i] = allUsers[i];\r\n            namesList[i] = users[addrList[i]].name;\r\n            typeList[i] = users[addrList[i]].userType;\r\n        }\r\n        return (namesList, addrList, typeList);\r\n    }\r\n    \r\n    function getUserName() public view returns(string memory name) {\r\n        return users[msg.sender].name;\r\n    }\r\n    \r\n    function getPublicKey(address id) public view returns(string memory pubKey) {\r\n        return users[id].pubKey;\r\n    }\r\n    \r\n    function addFile(address to_id, string memory name, string memory hash, string memory key, string memory iv) public {\r\n        fileInfo[hash] = file(msg.sender, to_id, name, hash, key, iv, true, block.timestamp);\r\n        userSentFileList[msg.sender].push(fileInfo[hash]);\r\n        userRcvdFileList[to_id].push(fileInfo[hash]);\r\n        totalFiles++;\r\n    }\r\n    \r\n    function getAllTransactions(address id) public view returns(file[] memory files) {\r\n        return (userSentFileList[id]);\r\n    }\r\n    \r\n    function getSentFiles() public view returns(file[] memory sentFiles) {\r\n        return (userSentFileList[msg.sender]);\r\n    }\r\n    \r\n    function getReceivedFiles() public view returns(file[] memory rcvdFiles) {\r\n        return (userRcvdFileList[msg.sender]);\r\n    }\r\n    \r\n    function getFile(string memory hash) public view returns(string memory name, string memory key, string memory iv) {\r\n        if(fileInfo[hash].approved == true) {\r\n            if(msg.sender == fileInfo[hash].from_id) {\r\n                return (fileInfo[hash].name, fileInfo[hash].key, fileInfo[hash].iv);\r\n            } else if(msg.sender == fileInfo[hash].to_id) {\r\n                return (fileInfo[hash].name, fileInfo[hash].key, fileInfo[hash].iv);\r\n            }\r\n        }\r\n    }\r\n}",
  "sourcePath": "H:\\Study Material\\LU Academics\\Fall 2019 - Winter 2020\\Final Project\\BlockEHR_PubNet+Infura\\contracts\\BlockEHR.sol",
  "compiler": {
    "name": "solc",
    "version": "0.5.16+commit.9c3226ce.Emscripten.clang"
  },
  "schemaVersion": "3.0.23",
  "updatedAt": "2020-03-18T20:37:24.188Z",
  "networkType": "ethereum",
  "devdoc": {
    "methods": {}
  },
  "userdoc": {
    "methods": {}
  }
}